:020000040800F2
:10000000582B0020B107000841170008711500089F
:10001000F1150008A70C00085D240008000000008E
:10002000000000000000000000000000611E000849
:10003000EF0F000800000000891D00089D1F000848
:10004000CB070008CB070008CB070008CB07000848
:10005000CB070008CB070008CB070008CB07000838
:10006000CB070008CB070008CB070008510D00089C
:10007000CB070008CB070008CB070008CB07000818
:10008000CB070008CB070008CB070008CB07000808
:10009000CB070008CB070008CB0700083910000881
:1000A000CB070008CB070008CB070008CB070008E8
:1000B000CB070008CB07000861200008CB07000829
:1000C000CB070008CB070008CB070008CB070008C8
:1000D000CB070008CB070008CB070008CB070008B8
:1000E000CB070008CB070008CB07000800F002F898
:1000F00000F05EF80AA090E8000C82448344AAF164
:100100000107DA4501D100F053F8AFF2090EBAE861
:100110000F0013F0010F18BFFB1A43F0010318473B
:10012000C4360000E436000010F8013B0A4413F026
:10013000030408BF10F8014B1D1108BF10F8015B44
:10014000641E05D010F8016B641E01F8016BF9D133
:10015000002D15D010F8014B03F00C030C2BA1EB74
:1001600004040ABF10F8013BA4EB8314A4EB03249E
:1001700005F1010314F8016B5B1E01F8016BF9D561
:10018000914238BF10F8013BD1D3704700230024BF
:1001900000250026103A28BF78C1FBD8520728BF97
:1001A00030C148BF0B6070471FB51FBD10B510BDF3
:1001B00000F034FB1146FFF7F7FF02F076F900F08C
:1001C00052FB03B4FFF7F2FF03BC00F055FB000045
:1001D0002DE9F04F4FF0000C4FF0000301EB1C6EC7
:1001E000BEF90250BEF900400EF5807EBEF90290C5
:1001F000BEF900800EF5807EBEF90270BEF9006087
:100200000EF5807EBEF902B0BEF900A00EF5807E2C
:10021000D044D944A8EB4A0AA9EB4B0B4FEAA404FB
:100220004FEAA50504EBA60405EBA705A4EB6606BB
:10023000A5EB670704EBA80405EBA905A4EB680888
:10024000A5EB690906EBAB06A7EBAA07A6EB6B0BC0
:1002500007EB6A0A458020F8044B478020F8046BBE
:10026000A0F8029020F8048BA0F802A020F804BBAC
:1002700003F1010393FAA3FC402BAFD1A0EB820161
:100280004FF0100312090FF2361000F1000006B40F
:1002900003EB430C6144A2F5803202EB8332B1F9E7
:1002A0000250B1F90040A1EB0301B0F902B0B0F97E
:1002B00000A000F10400A5EB040E0EFB0BFC0AEB02
:1002C0004B0E05FB0ACB04FB0ECAB1F90250B1F983
:1002D0000040A1EB0301B0F90290B0F9008000F1F9
:1002E0000400A5EB040E0EFB09FC08EB490E05FB10
:1002F00008C904FB0EC8B1F90250B1F90040A1EBE6
:100300000301B0F90270B0F9006000F10400A5EB40
:10031000040E0EFB07FC06EB470E05FB06C704FBAD
:100320000EC6B1F90250B1F9004001F10001D0440C
:10033000D944A8EB4A0AA9EB4B0B4FEAA4044FEAB5
:10034000A50504EB264405EB2745A4EBE636A5EB13
:10035000E73704EB284405EB2945A4EBE838A5EB87
:10036000E93906EB2B46A7EB2A47A6EBEB3B07EB5D
:10037000EA3A4D800C8019444F800E801944A1F850
:100380000290A1F800801944A1F802A021F804BB52
:10039000B2F5803283DA03EB430C6144A2F101022F
:1003A0005FEA024E18BFA0EB0C007FF476AF06BCEC
:1003B0004FEA830392087FF46AAFBDE8F08F0040F4
:1003C000000000400000004000005DDD213BA32252
:1003D0007E180000412D7EA5412D0000412D00C05A
:1003E00000405DDD82E75DDD213B7EA5412D0040C3
:1003F00000000040000000400000AA2A94126B395F
:10040000460649327C0CA8118E2349327C0CA3226B
:100410007E1821F77931AA2A9412A8118E235DDD66
:10042000213BA3227E180000412D95C6B13F461AFC
:100430002B1E58EE3735BEB4C53EA8118E235DDDA8
:10044000213B63A97138DF089A28B7CDC53E7EA548
:10045000412D0000412D00C0004063A92B1E21F753
:100460007931BEB4C53EBEB47C0C58EE373561ACB4
:10047000213B95C6BAF9BAE571383BA737355DDD42
:1004800082E75DDD213B7EA5412D21F766D756D55C
:100490003F3D3BA78E23A811C9CAB7CDC53E61AC6D
:1004A0007E18AA2AC1C295C6B13FBEB47C0C0040DA
:1004B000000000400000004000001E3BB504693E03
:1004C0009201C83C2403EB356409C83C24036B3912
:1004D00046066C30060E1E3BB504EB356409AA2AAD
:1004E00094126B39460649327C0CAE240917AF379B
:1004F000D607882E8D0F7E1E5D1BEB356409AA2A58
:10050000941224188C1F1E34F10AB3269015A811DA
:100510008E2349327C0CA3227E18140B60276C308A
:10052000060E7E1E5D1B7104FB2A882E8D0F461A57
:100530002B1EC7FD5A2E9D2C1211FE15E72021F708
:100540007931AA2A9412A8118E2387F05334B22845
:100550001314480D202602EAE536B3269015DF086D
:100560009A289CE32B39AE2409177104FB2A5DDD20
:10057000213BA3227E180000412D4ED7C53C93207D
:10058000EF198FFB6C2F78D1153E7E1E5D1B21F776
:100590007931E2CB0F3F641CC61CB8F2683395C6B4
:1005A000B13F461A2B1E58EE373597C1FB3F241832
:1005B0008C1F02EAE536F0BCEC3FFE15E720BAE5F9
:1005C0007138A6B8853FD5133D2282E1DB39BEB430
:1005D000C53EA8118E235DDD213B40B1AF3D790FB3
:1005E000DA244DD9423C2EAE423C480D202656D549
:1005F0003F3D8EAB823A140B602778D1153E63A93C
:100600007138DF089A28B7CDC53EB1A71236A906C2
:10061000CE2915CA4F3F78A668337104FB2A95C6C8
:10062000B13FBCA576303902212C38C3EC3F7EA502
:10063000412D0000412D00C00040BCA5CE29C7FDC2
:100640005A2EF0BCEC3F78A620268FFB6C2F09BAFF
:10065000B13FB1A73D2257F976304DB74F3F63A95F
:100660002B1E21F77931BEB4C53E8EABEF19ECF4E9
:1006700074325EB2153E2EAE9015B8F268332DB0CE
:100680003F3D40B1121187F053342EAE423CBEB410
:100690007C0C58EE373561AC213BA6B8D6072BEC65
:1006A0001236C8AADB39F0BC240302EAE53663A996
:1006B000713897C16EFEDCE7B03734A8E53695C6D1
:1006C000BAF9BAE571383BA73735E2CB0FF59CE3B1
:1006D0002B3978A6683378D173F082E1DB39EDA548
:1006E00079314ED7EDEB6DDF823A99A56C2F5DDD48
:1006F00082E75DDD213B7EA5412D9CE33AE352DBA1
:10070000B63B99A5FB2A02EA19DF4DD9423CEDA57B
:100710009A2887F026DB4ED7C53C78A6202621F7FD
:1007200066D756D53F3D3BA78E23C7FDDFD363D3A6
:10073000AF3D34A8E720710494D078D1153E63A969
:100740002B1E140B8CCD94CF723EC8AA5D1BA81132
:10075000C9CAB7CDC53E61AC7E18241850C8E2CBDB
:100760000F3F2EAE90157E1E25C615CA4F3F2DB0E9
:100770009412AE244AC451C8853F5EB28D0FAA2A96
:10078000C1C295C6B13FBEB47C0C6C308EC1E2C410
:10079000D43F4DB76409EB35B1C038C3EC3F09BA5B
:1007A00046061E3B2CC097C1FB3FF0BC2403000053
:1007B0000948804709480047FEE7FEE7FEE7FEE7F5
:1007C000FEE7FEE7FEE7FEE7FEE7FEE70448054931
:1007D000054A064B70470000A11F0008ED00000805
:1007E00058250020582B002058270020582700208B
:1007F00070477047704710B500F008F8006810BDEA
:1008000010B5044600F002F8046010BD00487047BF
:10081000F824002000487047F82400207546FFF7B0
:10082000F9FFAE4605006946534620F007008546AD
:1008300018B020B5FFF7CAFFBDE820404FF0000612
:100840004FF000074FF000084FF0000B21F00701B8
:10085000AC46ACE8C009ACE8C009ACE8C009ACE8FB
:10086000C0098D46704710B50446AFF3008020469E
:10087000BDE81040FFF7A5BC01491820ABBEFEE75C
:10088000260002007047000010B501231A460549F2
:10089000002000F009F84FF4807000F095F8012076
:1008A00010BD000040420F002DE9F04104460D4606
:1008B00016461F4600F0ACF80120BDE8F0810000AC
:1008C0003CB5024600240094019401241F4D2C6085
:1008D00000241F4DC5F88C41002005E0441C145D28
:1008E0000DF80040441CE0B28842F7DB002022E013
:1008F00000231CE01DF8004004F0800424B1012412
:10090000124D2D1D2C6003E00024104D2D1D2C6078
:1009100000240E4D2C601DF800406406240E0DF8D6
:10092000004001240A4DC5F890415C1CE3B2082B3D
:10093000E0DB441CE0B28842DADB0124034D2D1DCC
:100940002C60034DC5F88C413CBD00009001214254
:10095000000021422DE9FC5F044689469246254667
:100960002646484602F078F907460D4A0D4B01F03D
:100970008FFFCDE9000101F05DFF8346CBF38D30A1
:100980000543CBF30D0006434AF4005000F01CF879
:10099000304600F019F8284600F016F8BDE8FC9F34
:1009A0003A8C30E28E79254070B504460D462A46D1
:1009B0000021084600F01CF82A4621464FF48040EA
:1009C000FFF7C8FF70BD00001CB50446074903C906
:1009D000CDE90001200A8DF80100E0B28DF8020097
:1009E00002216846FFF76CFF1CBD0000DC370008E1
:1009F0002DE9F04104460D461646002744EA05005D
:100A000040EA06073846FFF7DFFFBDE8F081000047
:100A100008B50121042001F0E5F93820ADF8000007
:100A200002208DF8020010208DF80300694602486C
:100A300000F042FC08BD00000008014021B18268BE
:100A400042F00102826003E0826822F001028260CB
:100A5000704721B1826842F48072826003E082684C
:100A600022F480728260704721B1826842F4801261
:100A7000826003E0826822F480128260704701463F
:100A800000208A6802F004020AB1012000E0002080
:100A90007047014600208A6802F008020AB101206E
:100AA00000E000207047000030B50246002000231F
:100AB00050680F4C20400D790C6844EA052420430F
:100AC000506090680B4C2040D1E902542C434D7982
:100AD00044EA450420439060D06A20F470000C7C06
:100AE000641EE4B2234340EA0350D06230BD0000EC
:100AF000FFFEF0FFFDF7F1FFF0B504460D460020C4
:100B00000021092D11DDE068A5F10A0606EB460774
:100B1000072606FA07F18843A5F10A0606EB460602
:100B200003FA06F10843E0600CE0206905EB450795
:100B3000072606FA07F1884305EB450603FA06F196
:100B400008432061072A0FDA606B561E06EB860702
:100B50001F2606FA07F18843561E06EB860605FA9D
:100B600006F10843606322E00D2A0FDA206BD61FDE
:100B700006EB86071F2606FA07F18843D61F06EB09
:100B8000860605FA06F10843206310E0E06AA2F148
:100B90000D0606EB86071F2606FA07F18843A2F129
:100BA0000D0606EB860605FA06F10843E062F0BD85
:100BB000816841F0080181607047816841F004015B
:100BC0008160704700B585B04821642001F018FAB3
:100BD00000F0CCF800F03AFB0121480201F002F9E4
:100BE000002000908DF804008DF805004FF4C0201F
:100BF00002900020039001208DF8100069461648ED
:100C0000FFF752FF4FF4004001F0C0F80723012224
:100C100009211148FFF770FF01210F48FFF719FF65
:100C200001210D48FFF70AFF0B48FFF7C1FF00BF86
:100C30000948FFF72EFF0028FAD10748FFF7BDFF4C
:100C400000BF0548FFF71BFF0028FAD10121024829
:100C5000FFF70AFF05B000BD0024014010B500F009
:100C600001F810BD0EB50121084601F0ABF84FF6B2
:100C7000FE70ADF804002320ADF800000020ADF8B0
:100C80000600ADF802008DF8080069464FF080407C
:100C900001F078FA0121880701F0F6F901218807AF
:100CA00001F0ECF90EBD00BFFEE700002DE9F041B8
:100CB0000446002C04DD24480078401C22490870BA
:100CC00024B921480078401E1F4908701E49087841
:100CD000C11700EB5171C910A0EBC1011A4A117084
:100CE00011460878C11700EB91718D101078C2176A
:100CF00000EB92729210A0EB820101EBD172C2F371
:100D00004707114A1078C21700EB92729210A0EBBD
:100D1000820101EBD1725210A1EB4202D6B23246EF
:100D200040210A4800F0A9FB3A468021074800F01C
:100D3000A4FB2A464FF48071044800F09EFB024851
:100D40000078BDE8F0810000F70F002000080140A6
:100D500010B5022000F00EF928B1012002490870F8
:100D6000022000F047F810BDF20F002000B58DB052
:100D70000121084601F016F81B4800F055F81B4801
:100D800002901B480390002004904FF4807005905F
:100D90000020069080200790400008908000099075
:100DA00020200A9000020B9000200C9002A90E480F
:100DB00000F0FFF8012202210B4800F0F1F80B20AF
:100DC0008DF8040000208DF805008DF80600012044
:100DD0008DF8070001A800F0B5FC0121024800F0E1
:100DE00017F80DB000BD0000080002404C2401407F
:100DF000F813002000F0805111B10349086001E0B0
:100E000002494860704700000404024000000240AC
:100E100021B1026842F00102026004E002684FF66C
:100E2000FE731A400260704701684FF6FE7211406F
:100E300001600021016041608160C1604B498842CE
:100E400008D14A490839496841F00F01474A083A30
:100E500051608AE045491431884208D14349083934
:100E6000496841F0F001414A083A51607DE03F494C
:100E70002831884208D13D490839496841F47061F8
:100E80003A4A083A516070E038493C31884208D10A
:100E900036490839496841F47041344A083A51608A
:100EA00063E032495031884208D1304908394968F5
:100EB00041F470212D4A083A516056E02B496431C3
:100EC000884208D129490839496841F47001274A04
:100ED000083A516049E025497831884208D12349D0
:100EE0000839496841F07061204A083A51603CE095
:100EF0001F49884206D1011F096841F00F01021FF6
:100F0000116032E01A491431884208D11849091F8A
:100F1000096841F0F001164A121F116025E01449DA
:100F20002831884208D11249091F096841F47061CB
:100F30000F4A121F116018E00D493C31884208D158
:100F40000B49091F096841F47041094A121F1160D9
:100F50000BE007495031884207D10549091F09684C
:100F600041F47021024A121F1160704708000240CC
:100F70000804024001460020002201F0805313B112
:100F8000054B1A6801E0054B1A6802EA01030BB130
:100F9000012000E0002070470004024000000240F1
:100FA0001AB103680B43036002E003688B430360DC
:100FB000704710B50022026847F6F0739A430C6A36
:100FC0008B6823430C6923434C6923438C69234377
:100FD000CC6923434C6A23438C6A23431A4302603F
:100FE000CB6843600B6883604B68C36010BD70477B
:100FF00000B5034603E04FF47A7000F005F8181EC0
:10100000A3F10103F7D100BD00EBC001C9004FF00F
:10101000E0225161002191610521116100BF4FF073
:10102000E021096901F480310029F8D004214FF052
:10103000E02211617047000010B5202000F02EF86A
:1010400001280DD14021104800F00AFA28B90F48B4
:101050000088401C00B20D490880202000F018F8DC
:10106000402000F01BF801280DD12021064800F097
:10107000F7F928B905480088401E00B203490880E6
:10108000402000F005F810BD000C014000000020D9
:101090000149086070470000140401400146002027
:1010A0000022074B1B6803EA0102054B14331B683F
:1010B0000B4013B10AB1012000E00020704700008E
:1010C00000040140002123498279002A3AD00A46CF
:1010D000126803689A430B461A600A1D1268036877
:1010E0009A430B1D1A60027911440A6803681A4377
:1010F0000A60184A0832126803689A43154B08338D
:101100001A601A1D126803689A43124B0C331A6056
:101110004279102A0ED11A1F126803681A430D4B28
:1011200008331A601A1D126803681A43094B0C33FE
:101130001A600DE00749427911440A6803681A43AE
:101140000A6005E0027911440A6803689A430A605C
:1011500070470000000401400349B1F9000000217C
:10116000014A118070470000000000201FB50121D6
:10117000082000F037FE0121084600F033FE482029
:101180008DF80F006020ADF80C0003208DF80E00E4
:1011900003A9154800F090F80521012000F06CF833
:1011A0000621012000F068F86020019001208DF8F0
:1011B0000A0000208DF808000C208DF8090001A815
:1011C000FFF780FF4FF4A06000F0F4FA17208DF8CD
:1011D000000001208DF803008DF801008DF8020059
:1011E000684600F0AFFA1FBD000C014010B500F0DA
:1011F00029F800F007F8024801F032F910BD0000AC
:10120000F81F002010B5002400BF0AE00A4830F89B
:101210002400A0F500600004084941F82400601C87
:1012200084B2FF2CF2DD4FF4807204490448FEF7CB
:10123000CFFF00F027F910BDF8130020F8170020A9
:10124000F81B002010B5FFF7BDFC10BD08B501214B
:10125000082000F0C7FD0220ADF8000003208DF843
:10126000020000208DF803006946024800F024F8CF
:1012700008BD0000000C014030B500228B071C0F98
:101280000F2303FA04F20B4B8C1053F824309343D2
:10129000084C8D1044F8253023468C1053F8243028
:1012A0008C07240F00FA04F42343024C8D1044F8F9
:1012B000253030BD080001402DE9F04102460025EF
:1012C0000026002000230024002791F803C00CF022
:1012D0000F0591F803C00CF0100CBCF1000F03D007
:1012E00091F802C04CEA050591F800C0BCF1000F6E
:1012F00031D0146800202BE04FF0010C0CFA00F301
:10130000B1F800C00CEA03069E4220D183004FF0E2
:101310000F0C0CFA03F7BC4305FA03FC4CEA040477
:1013200091F803C0BCF1280F06D14FF0010C0CFA64
:1013300000FCC2F814C00AE091F803C0BCF1480FE9
:1013400005D14FF0010C0CFA00FCC2F810C0401C93
:101350000828D1D31460B1F800C0BCF1FF0F34DD10
:10136000546800202EE000F1080C4FF0010808FA44
:101370000CF3B1F800C00CEA03069E4221D18300B1
:101380004FF00F0C0CFA03F7BC4305FA03FC4CEAD0
:10139000040491F803C0BCF1280F05D100F1080C3A
:1013A00008FA0CF8C2F8148091F803C0BCF1480F99
:1013B00007D100F1080C4FF0010808FA0CF8C2F848
:1013C0001080401C0828CED35460BDE8F081000096
:1013D000F0B50A46002300240021002500F0004655
:1013E000B6F1004F02D11D4EF16901E01B4E71684C
:1013F000C0F3034583B200F44016B6F5401F08D190
:1014000021F07061154E766826F07066134F7E608D
:1014100012E000F48016B6F5801F06D1032606FA06
:1014200005F4A14341F0706106E0460D360103FA70
:1014300006F6B14341F0706122B1460D360103FA60
:1014400006F6314300F00046B6F1004F02D1034EDC
:10145000F16101E0014E7160F0BD0000000001404B
:101460000246002093680B400BB1012000E00020F1
:10147000704741617047016170470AB1016100E046
:10148000416170472DE9F04F8BB0002464E035488E
:1014900030F8240040F38D09324850F824004FEA18
:1014A000204A484601F048FD80464FF0874101F050
:1014B0005BFD07464FF08E4101F05CFC054650464F
:1014C00001F03AFD80464FF0874101F04DFD07469F
:1014D0004FF08E4101F04EFC06463146304601F099
:1014E00043FD29460290284601F03EFD01900299F5
:1014F00001F0DEFB039001F0AFFB074600F0E9FFCF
:1015000000224FF08043CDE9040101F0C1F900222F
:10151000154BCDE9060101F035F8CDE9080100F0E1
:10152000FFFF83465CB94FF08E41584601F01CFD29
:10153000074601F0E1FC0D4941F824000AE04FF0B4
:101540008F41584601F010FD074601F0D5FC0749D0
:1015500041F82400601C84B2802C98DB0BB0BDE8FD
:10156000F08F0000F81B002000007040F81F0020E2
:1015700000BFFEE710B54FF480610248FFF77BFF24
:1015800010BD00000008014008B50121442000F012
:1015900029FC10208DF803004FF48460ADF80000A2
:1015A00003208DF8020069460348FFF785FE69466F
:1015B0000248FFF781FE08BD000801400018014005
:1015C00008B501210D2000F00DFC01210648FFF7B0
:1015D000FFFE48208DF803001820ADF80000694692
:1015E0000248FFF769FE08BD00023000000C014010
:1015F00000BFFEE70A250026002777E000F042FE44
:101600000446BE4202D000F0DFF8374637B1012F62
:101610003BD0022F4CD0032F67D111E004B12646F6
:1016200033A20121084600F07BFB35A201210220F4
:1016300000F076FB36A20121032000F071FB54E09C
:1016400035A20121084600F06BFB012C19D0022CB9
:101650000CD0032C17D10120FFF728FB8046012373
:1016600042461946022000F039FB0CE00020FFF74B
:101670001DFB8046012342461946022000F02EFB46
:1016800001E0002600BF00BF2FE00EE025A20121EF
:10169000084600F045FBFFF7A9FD00F0F3FD012827
:1016A00002D100F088F901E00026EFE700BF1CE05E
:1016B0001FA20121084600F033FBFFF74DFD28442F
:1016C00005B204232A460121022000F007FB05EBA6
:1016D0008501480001F030FC80460021FFF764F9E5
:1016E000012C01D1002600BF00BF00BF86E700002B
:1016F0003120566F69636520506F77657200000076
:10170000322053696E2041707065617200000000E4
:101710003320464654000000566F69636520506FC1
:10172000776572004D757369632121210000000007
:101730004672657175656E637920536574000000AB
:101740007047000070B5002100230F22C47804B355
:10175000154C246804F4E064C4F5E064210AC1F186
:101760000403CA40447804FA03F184781440214306
:1017700009010E4C0678A155047804F01F050124D8
:10178000AC4005786D11AD0005F1E025C5F80041CC
:1017900009E0047804F01F050124AC40044D0678EC
:1017A000761145F8264070BD0CED00E000E400E045
:1017B00080E100E002490143024A116070470000E5
:1017C0000000FA050CED00E070B500240EE00021E9
:1017D000204600F037FA002504E0002000F0C4FAAB
:1017E000681CC5B2802DF8DB601CC4B2082CEEDB8F
:1017F00070BD000008B50121082000F0F3FA1420A4
:101800008DF8030003208DF802004FF48070ADF8CE
:10181000000069460A48FFF74FFD4FF40070ADF82D
:10182000000069460648FFF747FD012211020448FF
:10183000FFF723FE012251020148FFF71EFE08BDFB
:10184000000C014070B50546002415E080202041C1
:1018500000EA05024FF400710E48FFF70EFE012268
:1018600011020C48FFF709FE00224FF4807109486D
:10187000FFF703FE601CC4B2082CE7DB0122110253
:101880000448FFF7FAFD00224FF480710148FFF78A
:10189000F4FD70BD000C014010B5012251020A4850
:1018A000FFF7EBFD012211020748FFF7E6FD0022DA
:1018B0004FF400710448FFF7E0FD00224FF48071FF
:1018C0000148FFF7DAFD10BD000C014010B5002201
:1018D0004FF400710648FFF7D0FD012211020448C1
:1018E000FFF7CBFD012251020148FFF7C6FD10BDF5
:1018F000000C014070B5002406E0002500E06D1CDE
:10190000B5F57A7FFBD3641CB4F57A7FF5D3FFF786
:1019100071FFAE2000F018FAD52000F015FA8020F3
:1019200000F012FAA82000F00FFA3F2000F00CFAA5
:10193000D32000F009FA002000F006FA402000F061
:1019400003FAA12000F000FAC82000F0FDF9DA2027
:1019500000F0FAF9122000F0F7F9812000F0F4F914
:10196000CF2000F0F1F9D92000F0EEF9F12000F0DD
:10197000EBF9DB2000F0E8F9302000F0E5F9A420D5
:1019800000F0E2F9A62000F0DFF98D2000F0DCF98C
:10199000142000F0D9F9AF2000F0D6F9FFF714FFBA
:1019A00070BD10B50246012000E050430B1EA1F1AE
:1019B0000101FAD110BD70B5002415E004F1B001A9
:1019C000C8B200F031F9022000F02EF9102000F02A
:1019D0002BF9002504E0002000F02DF9681CC5B2A9
:1019E000802DF8DB601CC4B2082CE7DB70BD000062
:1019F000F0B5144600267F2801DC3F2900DDF0BD4C
:101A00000B46CF1701EB5777FF10C7F10707FAB264
:101A1000CF1701EB5777FF10A1EBC707FDB2C5F158
:101A200007070123BB40DEB24CB10A4B03EBC003F6
:101A30009B5C3343074F07EBC007BB5408E0054BE3
:101A400003EBC0039B5CB343024F07EBC007BB54DF
:101A500000BFD4E7F80F00202DE9F04706460F46F7
:101A600090469946DDF820A034460CE03D4606E05D
:101A7000524629462046FFF7BBFF681CC5B24D45BC
:101A8000F6DD601CC4B24445F0DDBDE8F08700001F
:101A900010B500F05BFA00224FF480413B48FFF79D
:101AA000ECFC012211033948FFF7E7FC6420FFF743
:101AB0009FFA00224FF480513448FFF7DEFC642087
:101AC000FFF796FA012211033048FFF7D6FCAE204B
:101AD00000F0AAF8022000F0A7F8102000F0A4F807
:101AE000402000F0A1F8812000F09EF8CF2000F007
:101AF0009BF8A12000F098F8C82000F095F8A620E7
:101B000000F092F8A82000F08FF83F2000F08CF849
:101B1000D32000F089F8002000F086F8D52000F0EE
:101B200083F8802000F080F8D92000F07DF8F120C3
:101B300000F07AF8DA2000F077F8122000F074F85C
:101B4000DB2000F071F8402000F06EF8202000F05B
:101B50006BF8022000F068F88D2000F065F8142082
:101B600000F062F8A42000F05FF8A62000F05CF816
:101B7000AF2000F059F8AF2000F056F8FFF71BFF38
:101B80000021084600F026F810BD0000000C0140BE
:101B900070B5002418E004F1B001C8B200F044F8B8
:101BA000002000F041F8102000F03EF8002507E08A
:101BB000074901EBC501085D00F03DF8681CC5B29E
:101BC000802DF5DB601CC4B2082CE4DB70BD000086
:101BD000F80F002070B504460D4605F1B001C8B2FB
:101BE00000F022F8A11CC1F3031141F0100000F035
:101BF0001BF8A11C01F00F0000F016F870BD0000EA
:101C000070B505460C4622464FF400510548FFF7D3
:101C100034FC284600F0F6F8012251030148FFF792
:101C20002CFC70BD000C014010B50446002120467C
:101C3000FFF7E6FF10BD10B5044601212046FFF76F
:101C4000DFFF10BD70B505460C4645F0B00000F052
:101C50007BF8102141EA141000F076F804F00F0030
:101C600000F072F870BD00002DE9F04105460E4607
:101C70001746721ED206110E6A1E5206100EFFF78C
:101C8000E1FF002409E0A7F12001134A02EB011152
:101C9000085D00F069F8601CC4B2082CF3DB721E0A
:101CA000D206110E6A1E012303EB4202D0B2FFF7E7
:101CB000C9FF00240BE0A7F12001074A02EB011243
:101CC00004F10801505C00F04FF8601CC4B2082C0D
:101CD000F1DBBDE8F0810000EA3100082DE9F047B2
:101CE00080460E4617461D46002415E0281B411E5F
:101CF0000A20FFF756FEB7FBF0F00A21B0FBF1F225
:101D000001FB120000F130093019C1B24A464046C9
:101D1000FFF7AAFF601CC4B2AC42E7DBBDE8F08766
:101D20002DE9F04107460E461546002407E02A5DDE
:101D30003019C1B23846FFF797FF601CC4B2285D66
:101D40000028F4D1BDE8F08110B50446FFF7A4FDEA
:101D50007820FFF777FD0020FFF774FD2046FFF79E
:101D600071FDFFF7B3FD10BD10B50446FFF794FDFC
:101D70007820FFF767FD4020FFF764FD2046FFF75E
:101D800061FDFFF7A3FD10BD704700000146002074
:101D9000034A506820F440400843506070470000F8
:101DA0000010024029B1064A52690243044B5A61AD
:101DB00004E0034A52698243014B5A6170470000B4
:101DC0000010024029B1064AD2690243044BDA618D
:101DD00004E0034AD2698243014BDA617047000094
:101DE0000010024029B1064A92690243044B9A61ED
:101DF00004E0034A92698243014B9A6170470000F4
:101E00000010024070B5044600251DE000224FF48A
:101E100000611248FFF731FB04F0800028B1012275
:101E200091020E48FFF729FB05E000224FF4806184
:101E30000A48FFF722FB6006040E0122D102074880
:101E4000FFF71BFB681CC5B2082DDFDB00224FF437
:101E500000610248FFF711FB70BD0000000C01405B
:101E6000704710B500F002F810BD00000CB500205E
:101E7000019000903348006840F480303149086098
:101E800000BF3048006800F4003000900198401C0A
:101E90000190009818B90198B0F5A06FF1D12948C8
:101EA000006800F4003010B10120009001E0002033
:101EB00000900098012843D12348006840F01000AA
:101EC000214908600846006820F0030008600846C1
:101ED000006840F0020008601A48406819494860EC
:101EE0000846406848600846406840F480604860A2
:101EF0000846406820F47C1048600846406840F47A
:101F0000E81048600846006840F08070086000BF34
:101F10000C48006800F000700028F9D009484068BB
:101F200020F00300074948600846406840F002007E
:101F3000486000BF0348406800F00C000828F9D151
:101F40000CBD0000001002400020024008B5012135
:101F50000820FFF747FF10208DF803004FF4F840EA
:101F6000ADF8000003208DF8020069460A48FFF72B
:101F7000A3F900224FF480410748FFF77EFA0122BF
:101F800091020548FFF779FA00224FF400610248F8
:101F9000FFF773FA08BD0000000C01407047000015
:101FA00010B51348006840F0010011490860084668
:101FB0004068104908400E494860084600680E49CC
:101FC00008400B4908600846006820F4802008603B
:101FD0000846406820F4FE0048604FF41F00886007
:101FE000FFF73FFF4FF000600449086010BD00009C
:101FF000001002400000FFF8FFFFF6FE08ED00E0D1
:1020000030B587B005460C4601210846FFF7DAFED9
:10201000ADF81450ADF810400020ADF81600ADF842
:10202000120004A94FF0804000F0ACF86020ADF839
:1020300000000120ADF802003220ADF806000220B9
:10204000ADF808006946400700F04AF8012188070A
:1020500000F01AF80121880700F022F807B030BD1F
:1020600010B50121044800F02AF818B101210248F6
:1020700000F007F810BD000000080040CA430282CB
:102080007047CA430282704721B1028842F00102C0
:10209000028004E002884FF6FE731A400280704707
:1020A00031B1B0F8442042F40042A0F8442005E0E9
:1020B000B0F84420C2F30E02A0F84420704730B5B7
:1020C0000246002000230024158A05EA01039589B1
:1020D00005EA010413B10CB1012000E0002030BD7D
:1020E00070B5002400220023058C4FF6EF763540B2
:1020F0000584028C8388048B48F6FF752C404FF6CC
:10210000FF452C400D884FF6FF7606EA05252C4347
:102110004FF6DF752A400D8906EA05152A434D88DA
:1021200006EA05152A43154DA84202D0144DA842CF
:102130001DD14FF67F752A404D894FF6FF7606EA8E
:1021400005152A434FF6BF752A408D8806EA051506
:102150002A434FF6FF352B404FF2FF752B408D89F8
:1021600006EA85052B43CD8906EA85052B43838046
:102170000483CD880587028470BD0000002C0140D7
:1021800000340140002202881D4B98420ED01D4BA6
:1021900098420BD0B0F1804F08D01B4B984205D02D
:1021A0001A4B984202D01A4B984204D14FF68F73C3
:1021B0001A404B881A43174B984207D0164B984247
:1021C00004D04FF6FF431A40CB881A4302808B8815
:1021D00083850B8803850A4B98420BD0094B9842A4
:1021E00008D00E4B984205D00D4B984202D00D4BB3
:1021F000984201D10B7A0386012383827047000045
:10220000002C014000340140000400400008004060
:10221000000C00400010004000140040004001404D
:10222000004401400048014008B5FFF7C9F9012109
:102230000C20FFF7D7FD10208DF803009220ADF899
:10224000000003208DF8020069460C48FFF734F8BF
:1022500069460B48FFF730F869460948FFF72CF844
:1022600002210648FFF705F980210548FFF701F92B
:1022700010210348FFF7FDF808BD000000080140E9
:10228000000C014010B5012000F026F8012807D10C
:1022900000BF012000F020F80128FAD0012010BD75
:1022A000022000F019F8022807D100BF022000F038
:1022B00013F80228FAD00220F1E7032000F00CF80E
:1022C000032807D100BF032000F006F80328FAD046
:1022D0000320E4E700BFE2E710B50446012C1AD161
:1022E00000F086F80520FEF783FE0020A107888411
:1022F000012000F053F800BF02212648FFF7B0F894
:102300000028F9D04FF08040808C322801DB01207A
:1023100010BD0020FCE7022C1BD1022000F068F861
:102320000520FEF765FE002061078884022000F08A
:1023300035F800BF80211848FFF792F80028F9D03F
:102340004FF08040808C322801DB0220E0E7002043
:10235000DEE7032C1CD1032000F04AF80520FEF72D
:1023600047FE00204FF080418884032000F016F8DB
:1023700000BF10210848FFF773F80028F9D04FF08C
:102380008040808C322801DB0320C1E70020BFE7BA
:1023900000BFBDE700080140000C014038B504460D
:1023A00004208DF8030003208DF80200012C07D1D2
:1023B0000220ADF8000069460B48FEF77DFF12E0F1
:1023C000022C07D18020ADF8000069460748FEF7CF
:1023D00073FF08E0032C06D11020ADF80000694619
:1023E0000248FEF769FF38BD00080140000C0140BB
:1023F00038B5044610208DF8030003208DF8020044
:10240000012C0BD10220ADF8000069461148FEF7FF
:1024100053FF02210F48FFF72CF81AE0022C0BD1D2
:102420008020ADF8000069460B48FEF745FF80218B
:102430000948FFF71EF80CE0032C0AD11020ADF874
:10244000000069460448FEF737FF10210248FFF7F5
:1024500010F838BD00080140000C014000BFFEE745
:10246000F8B50646351D00241AE0012000902888A2
:10247000012101EB1010C3B2224600212046FFF7D4
:10248000EBFA002000902888012202EB1010C1B264
:102490003F2322462046FFF7DFFA2D1D601CC4B201
:1024A000802CE2DBFFF774FBF8BDFFF7F1FAFEF7D3
:1024B0005DFEFEF7E9F9FFF767F8FEF7CFFBFFF7E0
:1024C00019FAFFF7B1FEFFF755F8FFF793F800BFD1
:1024D000FEE72DE9F04106460F4600F0D7FA041E4C
:1024E0000D4618BF0120284320F00040C0F17F6056
:1024F00000F1E040C00F0ED0301C18BF012038435F
:1025000020F00040C0F17F6000F1E040C00F04BF48
:102510000120FEF775F920462946BDE8F08100004C
:1025200021F00042A2F16052B2F5801F01F0004399
:1025300028BFD2F17F6C0BD95FEA001C43EAC202CC
:1025400042EB507018BF704728BF20F00100704761
:10255000B2F5801FBCBF184670474FEA410C1CF50E
:10256000001F02D2084600F0C6BD70B500F03AFA6E
:1025700000000089FFF7F6BF4FF00040A0F5800093
:10258000704700002DE9C04130B4DFF8A0C23CEA3A
:10259000111418BF3CEA131400F0EC8081EA030523
:1025A0001CEA111444EAD57418BF1CEA131500F094
:1025B000C780A4EB05044FF0004545EAC12145EA78
:1025C000C32341EA505143EA525304F17F749942C4
:1025D00004F500344FEAC0204FEAC22208BF9042FF
:1025E00000F09C804FEA13650FF24016765D4FEACB
:1025F000134506FB05F7C7F1807706FB07F74FEA9F
:10260000D737A7FB03687642C8F58038A7FB06CE0C
:1026100038BFA8F1010807FB08E64FF0000EA6FB43
:10262000028CE6FB03CEDCF1000CCEF1004E38BF8D
:10263000AEF1010EA6FB0C584FF000074FF000055D
:10264000E6FB0E87A1FB08C6A0FB07CE16EB0E0625
:1026500045F10005E1FB076515F1E04E7EBFA4F5ED
:1026600080345FEA46066D4116F1800745F10005AA
:102670004FEA17274FEA066647EA0567A6F1DE46E6
:10268000B6F1805F4FEA15251FD9384624F0010CBA
:1026900005EBC471BCF1FE6F01EB0C1102D8F0BC6C
:1026A000BDE8008124425CBF01F5801E9EEAC47F24
:1026B00002D4F0BCBDE80081244238D4F0BCA1F1C2
:1026C000C041BDE8004100F0DBB94FEAD22242EA46
:1026D00043524FEAD323A7FB02864FEAD02040EAB9
:1026E000415007FB03661EEA0E0F4FEAD12105FB9E
:1026F000026658BFA6EB0056B6EB00564FEA520EE4
:102700004EEAC37E18EB0E0E56EB530EBDD518EBFA
:1027100002085E417F1C55F10005B6E74FF48015B5
:102720004FF000074FF000064FF00008ADE7F0BC97
:102730004FF0000001F1C04101F00041BDE800810F
:1027400011EA0C1F0CEA131500D00CE013EA0C1F61
:1027500000F025804FF00000F0BC81EA030101F099
:102760000041BDE80081F0BCBDE8004181EA030101
:1027700000F086B9F0BCBDE8004170B500F032F958
:10278000097EFC3E00F007B881EA03014FF000002B
:1027900001F00041704781EA030100F071B9F0BC1B
:1027A000BDE800414FF0000021497047FFFDFBF9F3
:1027B000F7F5F4F2F0EEEDEBE9E8E6E4E3E1E0DE74
:1027C000DDDBDAD8D7D5D4D3D1D0CFCDCCCBCAC8E6
:1027D000C7C6C5C4C2C1C0BFBEBDBCBBBAB9B8B70D
:1027E000B6B5B4B3B2B1B0AFAEADACABAAA9A8A800
:1027F000A7A6A5A4A3A3A2A1A09F9F9E9D9C9C9BCE
:102800009A99999897979695959493939291919078
:102810008F8F8E8E8D8C8C8B8B8A89898888878709
:102820008685858484838382828181800000FF077E
:102830000000F87F4FEA1153A3F58063D3F11E0324
:10284000A8BFD3F1200C08DB4FF0004242EAC122BE
:1028500052EA505232FA03F0704709420BD4102B5F
:10286000C4BF0020704703F5787CBCF1FF3F05D062
:102870004FF0FF3070474FF00000704770B500F028
:10288000B1F800BF4992248000207047F0E70000B3
:10289000DFF848C170B51CEA111E1EBF1CEA1315F3
:1028A0009EEA0C0F95EA0C0F00F06F8081EA03049A
:1028B00023EA4C134EEAD47E21EA4C1141F48011F4
:1028C00043F48013AE44A1FB024CA0FB0365AEF1C0
:1028D0007F7E361955EB0C05A1FB034C4CF1000330
:1028E000A0FB021C16EB0C06654153F100030942E4
:1028F00018BF46F0010613F4007F0BD14FEA0331F5
:102900004FEA0530340341EA155140EA16506FF0A2
:1029100003020AE04FEAC3214FEAC520F40241EA6C
:10292000555140EA56506FF0020202EB2E4201EB85
:10293000025585EACE710AD05FEA440C18BF24F034
:10294000004450F1000041F1000120EAD47040F24F
:10295000FE7C624500D270BDA84214BF4FF0804497
:102960004FF04044002E08BF0024BEF1806FA8BF86
:10297000A1F1C041BDE8704080F282804FF00000BC
:1029800001F1C04101F0004170479EEA0C0F0CEAD2
:10299000131518BF95EA0C0F06D04FF0000081EA1E
:1029A000030E0EF0004170BD00F01CF88900013EDE
:1029B00000F007B800F009B84FEA430C5FEA5C5C2E
:1029C00008D081EA030100F05BB84FEA410C5FEAEE
:1029D0005C5CF6D14FF00000014970470000FF0732
:1029E0000000F87F0EF1020E2EF0030E5EF8046B6D
:1029F000364205D4012A43EB030515F5001F12D812
:102A0000012841EB010C1CF5001F0CD80ED14FEA38
:102A1000D17C15F5001F0CEB4C0C0CF1020C08BF1F
:102A20004CEBD37C04E04FF0080C01E04FEAD37C80
:102A30000CEB4C0526FA05F606F00706B6F1040C79
:102A400006D20EEB860CBDE870404CF0010C6047DE
:102A5000DFE80CF0090B02024FF000414FF00000DC
:102A6000A1F5002170BD19461046012851EB010463
:102A700018BFD4F5001484BF002001F0004170BDE0
:102A80000808A0F500114FEA310170472DE9F04127
:102A900001F5801CBCF5001FC0F2C3804FEA115C39
:102AA00021EA0C510CF1FD0C41F480115FEA5C0C41
:102AB0000CF5C07C01D3400049413DA4890241EAA4
:102AC000905187028E0E0A0CA45D04FB04F602FBF3
:102AD00006F6C6F14046A4FB0662F60D46EA42261B
:102AE00006FB06F4A4FB01235242C3F1404338BF66
:102AF0005B1EA6FB02420024E6FB0324D20B42EA43
:102B00004446A6FB0623A1FB02E2A3FB07E4A418AC
:102B10004FF0000252F10002E3FB01426442C2F1B5
:102B2000404E38BFAEF1010EA6FB04234FF0000269
:102B3000E6FB0E32A2FB03464FF00004B61954F137
:102B40000004E2FB0264A1FB06E6A4FB07E816EB27
:102B500008064FF0000858F10008E4FB01687642CF
:102B6000C8F1405838BFA8F10108A2FB06E4A3FB56
:102B700008E52D194FF0000454F10004E2FB08545D
:102B8000A1FB05E6A7FB04E818EB06084FF00006DA
:102B900056F10006E1FB048618F1200556F1000607
:102BA000A809A8F11B08B10908F03F08B8F10A0FFD
:102BB00040EA86601CD901EB0C51BDE8F08100BFF2
:102BC000FCF5EEE8E2DDD8D3CFCBC7C3C0BDB9B6C4
:102BD000B4B1AEACA9A7A5A3A19F9D9B9A989695C9
:102BE0009392908F8D8C8B89888786858483828150
:102BF000A0FB006800FB01F208EB4208B8EB872855
:102C000007D5341858EB0104D5D5401C51F100010B
:102C1000D1E7341A78EB0104CDD4401E71F10001E4
:102C2000C9E75FEA4C0C5FEA9C5C0DD105D34FF01D
:102C3000000001F00041BDE8F081BDE8F04170B551
:102C4000FFF7D0FE6DDBFFBEBDE8F0414FF00000A6
:102C5000004970470000F87F43004FEAD30C4FEA69
:102C60003C0C43401FBF40070CF1605113F0FE4F76
:102C700070471CF0006F03D100200CF0004170473A
:102C80000CF0004343EA507010B540EACC0000F06D
:102C9000ECF900BF000000924FEA0001FFF7F0BE20
:102CA0004FF000414FF00000A1F5002170470000F7
:102CB00090EA010F48BF81F0004100F12882421ADA
:102CC0003CBF801A89184FEAD0524FF07F4C1CEA63
:102CD000410FA2EBD15318BF9CEA026F00F03B807A
:102CE0004FF0004C4CEA00204CEA012121FA03FC91
:102CF00010EB0C0C1ED202F1FF325FEA1C2040EBFD
:102D0000C25038BF70471CF07F0F4FEA400C18BF0D
:102D1000BCF17F4F38BF7047C3F12003994008BF13
:102D200020F00100BCF17F4F38BF7047A0F1C040D8
:102D300000F0E1B94FEA3C00000A40EBC25028BF66
:102D40001CF0FF0F4FEA400CE6D018BFBCF17F4FDC
:102D500038BF7047EAE79CEA026F05D010EA5C0FC3
:102D600008BF00F00040704710B500F07EF900BFCA
:102D700064FBBE3E4FF47F0C1CEAD0121EBF1CEA5F
:102D8000D11392EA0C0F93EA0C0F00F0858090EAC1
:102D9000010F48BF42F4807240F4000C41F400007F
:102DA0002CF07F4120F07F4000B58142A2EB03026E
:102DB0000FF2081CACEB504EC0F100009EF800E092
:102DC0004FEA4E0E00FB0EFC38BF49004FEA2C1CA8
:102DD00002F5FA020CFB0EF34FEACE1E4FEA112C5D
:102DE0004FEAC1210EEB635E42EB22420EFB0CFC6C
:102DF0004FEA1C5300FB03114FEA112C4FEA01313B
:102E00000EFB0CFC4FEADC4C00FB0C11C14228BF4E
:102E100009184CEB03335DF804EB10EB410143EB75
:102E2000C250B2F57C0F38BF704729D512F0F00FB1
:102E30001CBF00F1C04000F0004070470081828359
:102E40008485868788898B8C8D8E8F9192939596B9
:102E500097999A9C9D9FA0A2A3A5A7A8AAACAEB043
:102E6000B2B3B5B7B9BCBEC0C2C5C7C9CCCED1D448
:102E7000D7D9DCDFE2E6E9ECF0F3F7FAFE00000078
:102E80004FEA400C0CF1807CBCF17E4F28BF7047AC
:102E9000B0F1C04000F02FB990EA010F0CEAD11355
:102EA00048BF42F48072624538BF634507D213F4CD
:102EB0007F0F16D080EA010000F00040704710B587
:102EC00000F0D3F8097EFC3E00F005B880EA01006E
:102ED00000F00040704780EA010000F0004000F080
:102EE0000AB912F47F0F04BF0248704780EA01005C
:102EF00000F001B90000C07FC10DD1F19E0206DBD8
:102F00004FEA002343F0004323FA02F070470042E7
:102F100007D54FEA4001B1F1FE4F02D24FF0000059
:102F2000704710B500F0A1F8499224800020704746
:102F30006FEA20007047000010F0004148BF404297
:102F4000B0FA80F310FA03F2C3F19D030BD051EAFB
:102F5000C35101EB1220530638BF704700F1010046
:102F600008BF20F0010070474FF47F0C1CEAD0121C
:102F70001EBF1CEAD11392EA0C0F93EA0C0F00F06B
:102F8000478090EA010F48BF42F480724FF0004C36
:102F90004CEA00204CEA012102EB0302A0FB0113E2
:102FA000A2F50002002918BF43F001035B0028BF0F
:102FB0004FEA330342EB22425FEA132C4CEBC25040
:102FC0002EBFBCEB436FB2F57C0F70474FEA036C2A
:102FD000BCF1004F08BF20F00100B2F57C0F38BFF4
:102FE00070470BD582F0FF0212F5803FC8BF7047D3
:102FF00000F1C040D8BF00F00040704700F5000C61
:103000005FEA4C0C48BF7047B0F1C04000F073B8A5
:1030100090EA010F0CEAD11348BF42F48072624576
:1030200038BF634504D280EA010000F000407047D9
:1030300010B500F01AF800BF8900013E00F007B893
:1030400000F009B85FEA410C5FEA1C6C08D080EA26
:10305000010000F050B85FEA400C5FEA1C6CF6D14A
:103060004FF00040A0F5800070470EF1020E2EF0E8
:10307000030E5EF8044B244204D44FEA4102B2F13D
:103080007F4F11D84FEA4003B3F17F4F0CD80ED1D8
:103090004FEAD07CB2F17F4F0CEB4C0C0CF1020CE0
:1030A00008BF4CEBD17C04E04FF0080C01E04FEA84
:1030B000D17C0CEB4C0324FA03F404F00704B4F1C4
:1030C000040C06D20EEB840CBDE810404CF0010C51
:1030D0006047DFE80CF0070802024FF00040A0F55F
:1030E000800010BD0846420018BFD2F1807288BF30
:1030F00000F0004010BDFF2141EAD050C0057047EC
:1031000090EA010F48BF81F000413FF5D8AD421A67
:1031100004D882F00042A0EB020011444FEAD052E2
:103120004FF07F4C1CEA410FA2EBD15318BF9CEA31
:10313000026F4AD04FF0004C4CEA00204CEA0121CB
:1031400021FA03FCB0EB0C0C0FD412F0FE0F36D0BA
:103150005FEA4C001DD5001240EBC25038BF7047EB
:103160001CF03F0F18BF70470BE0A2F101025FEAAD
:103170001C2040EBC25038BF70471CF07F0F18BFB7
:103180007047C3F12003994014BF401E20F0010096
:10319000704780084FEA122308BF7047B0FA80FCDE
:1031A000A2EB0C02CCF1280C60FA0CF093EA122F7F
:1031B00004BF00EBC25070474FEAC3707047130A58
:1031C0005FEADC1008BF7047F6E79CEA026F04D0A4
:1031D00010EA5C0F08BF0020704710B5FFF745FFED
:1031E00040DFF63E81F00040704700000000000024
:1031F00000000000000000000000000000F80000D7
:103200000000000000333000000000100C06100C1D
:103210000600000000000000000040C07840C078B8
:103220004000043F04043F040400007088FC0830A0
:103230000000001820FF211E0000F008F000E01838
:10324000000000211C031E211E0000F008887000F1
:1032500000001E2123241927211010160E00000043
:1032600000000000000000000000000000E0180462
:103270000200000000071820400000020418E000CF
:1032800000000040201807000000404080F080400F
:1032900040000202010F01020200000000F00000E5
:1032A00000000101011F01010100000000000000F9
:1032B000000080B07000000000000000000000006E
:1032C00000000001010101010101000000000000F7
:1032D00000000030300000000000000000008060AE
:1032E0001804006018060100000000E01008081033
:1032F000E000000F102020100F00001010F8000058
:1033000000000020203F20200000007008080888EE
:1033100070000030282422213000003008888848BE
:1033200030000018202020110E000000C02010F8EE
:10333000000000070424243F240000F808888808BF
:1033400008000019212020110E0000E010888818C4
:103350000000000F112020110E0000380808C838A6
:1033600008000000003F0000000000708808088886
:103370007000001C222121221C0000E0100808100F
:10338000E0000000312222110F00000000C0C00048
:10339000000000000030300000000000008000004D
:1033A000000000008060000000000000804020104D
:1033B0000800000102040810200040404040404046
:1033C00040000404040404040400000810204080A9
:1033D00000000020100804020100007048080808DE
:1033E000F0000000003036010000C030C828E810AE
:1033F000E0000718272423140B000000C038E00069
:103400000000203C23020227382008F888888870B2
:103410000000203F202020110E00C03008080808BE
:103420003800071820202010080008F808080810A5
:10343000E000203F202020100F0008F88888E808CE
:103440001000203F20202320180008F88888E80872
:103450001000203F200003000000C030080808389A
:10346000000007182020221E020008F808000008AB
:10347000F808203F210101213F20000808F8080832
:1034800000000020203F2020000000000808F8086D
:103490000800C08080807F00000008F888C02818DD
:1034A0000800203F20012638200008F8080000000E
:1034B0000000203F20202020300008F8F800F8F815
:1034C0000800203F003F003F200008F830C00008FF
:1034D000F808203F200007183F00E01008080810F7
:1034E000E0000F10202020100F0008F8080808083E
:1034F000F000203F210101010000E0100808081041
:10350000E0000F18242438504F0008F88888888875
:103510007000203F2000030C30200070880808084D
:1035200038000038202121221C00180808F808085B
:1035300018000000203F2000000008F808000008E4
:10354000F808001F202020201F000878880000C8ED
:103550003808000007380E010000F80800F80008DD
:10356000F800033C0700073C0300081868808068E7
:10357000180820302C03032C30200838C800C83825
:1035800008000000203F2000000010080808C8388C
:1035900008002038262120201800000000FE02022A
:1035A00002000000007F40404000000C30C00000DE
:1035B0000000000000010638C00000020202FE0008
:1035C0000000004040407F000000000004020202B2
:1035D00004000000000000000000000000000000E7
:1035E00000008080808080808080000202040000D3
:1035F00000000000000000000000000080808080CB
:1036000000000019242222223F2008F800808000B8
:103610000000003F112020110E000000008080807B
:103620000000000E11202020110000000080808882
:10363000F800000E112020103F20000080808080C4
:103640000000001F222222221300008080F08888C0
:1036500088180020203F202000000000808080800B
:103660008000006B94949493600008F80080808040
:103670000000203F210000203F200080989800009B
:1036800000000020203F20200000000000809898CB
:10369000000000C08080807F000008F8000080806B
:1036A0008000203F24022D302000000808F8000090
:1036B00000000020203F202000008080808080804B
:1036C0008000203F20003F20003F808000808080DD
:1036D0000000203F210000203F20000080808080EB
:1036E0000000001F202020201F008080008080001C
:1036F000000080FFA12020110E00000000808080CB
:103700008000000E112020A0FF808080800080803B
:10371000800020203F212000010000008080808068
:1037200080000033242424241900008080E080805D
:1037300000000000001F20200000808000000080AA
:103740008000001F202020103F208080800000800B
:10375000808000010E30080601008080008000801B
:1037600080800F300C030C300F00008080008080C0
:1037700080000020312E0E312000808080000080EB
:10378000808080818E70180601000080808080809B
:1037900080000021302C2221300000000000807CBD
:1037A000020200000000003F404000000000FF0057
:1037B000000000000000FF0000000002027C80000A
:1037C00000000040403F000000000006010102022E
:1037D00004040000000000000000000003000000DE
:1037E000000000000438000800000020F80F00006E
:1037F0002801000810440008F80F0020601B00009A
:103800008C0100088005000000400420115DDD21CE
:103810003BA3227E180000412D7EA5412D082009E2
:1038200000C000405DDD82E71C311491302011AAF8
:103830002A94126B39460649327C0CA8118E230853
:103840002140200521F779311C2114A154601195E4
:10385000C6B13F461A2B1E58EE3735BEB4C53E20C2
:10386000A00D63A97138DF089A28B7CDC53E78202E
:103870000563A92B1E4C212C2005BEB47C0C38A05E
:103880001161AC213B95C6BAF9BAE571383BA7374F
:10389000359C201121F766D756D53F3D3BA78E2397
:1038A000A811C9CA50200961AC7E18AA2AC1C27CDD
:1038B0002144A1F020111E3BB504693E9201C83C91
:1038C0002403EB3564090821D020056C30060E1C5A
:1038D0002114A1E46011AE240917AF37D607882E52
:1038E0008D0F7E1E5D1B20A40D24188C1F1E34F12D
:1038F0000AB3269015082005140B60274C212C20B4
:10390000057104FB2A382500A40DC7FD5A2E9D2CF5
:103910001211FE15E7202C201187F05334B2281322
:1039200014480D202602EAE53650251820059CE3B0
:103930002B397C2144A5A420114ED7C53C9320EF00
:10394000198FFB6C2F78D1153E682530A40DE2CB82
:103950000F3F641CC61CB8F2683374200597C1FB86
:103960003FAC215C2005F0BCEC3F802548A40DA6AF
:10397000B8853FD5133D2282E1DB3998201140B153
:10398000AF3D790FDA244DD9423C2EAE423C98250A
:103990006020058EAB823ADC2174A5BC2011B1A752
:1039A0001236A906CE2915CA4F3F78A66833F425EA
:1039B00078A40DBCA576303902212C38C3EC3FE049
:1039C0002405BCA5CE290C218C200578A62026C86C
:1039D000A81109BAB13FB1A73D2257F976304DB7CA
:1039E0004F3F0420118EABEF19ECF474325EB21528
:1039F0003E2EAE9015E024092DB03F3D40B112118E
:103A00003C21A4A9282411A6B8D6072BEC1236C84D
:103A1000AADB39F0BC240354296CA80D97C16EFEB3
:103A2000DCE7B03734A8E5364C153826F56C21BCF8
:103A3000240578D173F010A811EDA579314ED7ED9A
:103A4000EB6DDF823A99A56C2F7024119CE33AE369
:103A500052DBB63B99A5FB2A02EA19DF282409EDBF
:103A6000A59A2887F026DB9C21D4A9944411C7FD90
:103A7000DFD363D3AF3D34A8E720710494D040A8CE
:103A80000F2B1E140B8CCD94CF723EC8AA5D1BB8B1
:103A90002405241850C8CC21EC24057E1E25C658C8
:103AA000A8112DB09412AE244AC451C8853F5EB20D
:103AB0008D0FDC24116C308EC1E2C4D43F4DB7644D
:103AC00009EB35B1C070240909BA46061E3B2CC06B
:103AD000FC2504ADC0032011D03E2E019B3F6500A4
:103AE000363FC9009A3D5B02082D100320055F3C5C
:103AF00088031C2114AD24036011D939E205023E6C
:103B0000F701F43BED038E380E0720AC0D3F37393B
:103B100008313DC002463A7E054803200592348EA6
:103B20000A4C212C20053433B70B382D4003AC0D43
:103B3000D231DF0C8A3B5104CE369D086C03201134
:103B4000022F2B0FB23A1A0505352B0A932D501070
:103B5000502D58032005212C73117C2144AD740491
:103B600020113129B413FD38AA065B31410DB3276A
:103B7000D214942D7003AC0D3226EE151F38720747
:103B80007B2FCA0EB403200526232118AC215C200C
:103B9000059C213719802D8803AC0D0E204B1A5D32
:103BA000360109A42BD311D8032011EB1C6C1C780F
:103BB00035C709AF295413561B791D982DA0032032
:103BC00005BE19841EDC2174ADFC032011881691FA
:103BD00020A933540BB1254C16EA149321F42DB8C7
:103BE00003AC0D4A139222BF321A0CA923C417202A
:103BF000042405051088240C218C2005610E7E25E7
:103C0000C82DD003AC0DBB0C7126E430A40D891F68
:103C1000A71A440420116D094C28F42F680E721D58
:103C2000121CC4073529E02DE80324051B061A2AB7
:103C30003C21A4BD6804241002D82B0E2EEE0F35B3
:103C400019DC1E1C01B22C542DAC04AC0D72FF8883
:103C50002D182DB11011173A208C0424051DFC28B5
:103C60002F6C21BC240573FAF22F102D1804AC0D13
:103C7000CAF8B830282B3412BF12E722B00424113E
:103C800079F536322D2AF41291103524D2F3EF3221
:103C9000282D300424052CF2A3339C21D4ADD40468
:103CA0002411E3EEFF34332873142E0CC12641EDAA
:103CB000A535402D4804AC0DA1EB4836332731150E
:103CC000FA09FE27F804240565E87E37CC21EC24A8
:103CD00005CBE61238582D6004AC0D32E5A1382F23
:103CE00025AB168D05652A1C05241108E2B0392B79
:103CF00024661755038F2B77E0303A702D78042413
:103D000005E9DEAB3AFC2504AD90062811D5DB921F
:103D10003B1F22DB18E4FECF2D4FDAFD3B142D9024
:103D200004AC0DCDD8643C17219319ABFCE42E6490
:103D3000052805D3D5213D2C251C24055CD4783DD0
:103D4000A02DA804AC0DE8D2C93D041F021B3CF80D
:103D5000F930880524110CD05C3EF81DB81B06F61E
:103D6000F831A5CE9D3EB82DC004280541CDD83EE2
:103D70005C2534ADAC05241188CA403FDD1B201DF5
:103D80009FF1DF3332C96B3FD02540AC0DE1C791C5
:103D90003FCE1AD31D6FEFC634D00528054EC5CCD3
:103DA0003F8C254C24050CC4E13FE82DF004AC0DFC
:103DB000CFC2F13FAD18341F16EB7D36F4051E65FA
:103DC0007405280D9B17E31FEFE84B3738BFFF3F03
:103DD000002D0805280511BEF83FBC2564AD180666
:103DE0002811D4BBDB3F74153D21AAE4CF38BFBAFC
:103DF000C43F182D8C06AC0DAFB9A73F5F14E82166
:103E00008EE284393C062805A2B75D3FEC257C286C
:103E100005A5B6303F302D3805AC0DAFB5FD3E34AD
:103E2000123B2364DED33AF8072811D5B3883E1D30
:103E300011E22357DC6D3BF2B2453E482D50052C74
:103E40000515B2FC3D1C032594AD84062C1171B000
:103E50005B3DED0E2C254DD8853CA9AF033D3403C9
:103E600025A0AC0DE8AEA53CD40DCF2551D6033D21
:103E7000A8062C057BADDA3B4C0325AC2805D0AC5D
:103E80006D3B782D8005BC0C2BACFA3AA10B1127A9
:103E90006DD2E3CC062811F8AA063A870AAF278527
:103EA000D0453E6AAA8439902D98052C05E3A9FDDA
:103EB000387C0325C4ADF0062811EBA8E137520881
:103EC000E728CCCCEB3E7BA84B37A82DB005AC0D3A
:103ED00012A8B13636078129FBCA303F14072C05DA
:103EE00057A76E35AC0325DC280505A7C634C02DC1
:103EF000C805BC0CBBA61934FF04B02A72C79C3895
:103F00000728113EA6B232E303452BBAC5C43F0BC6
:103F1000A6F831D82DE0052C05E0A53931DC0325C4
:103F2000F4AD5C072C11A1A5AF2FAA016A2C66C2C3
:103F3000F53F8DA5E42EF4032DF805BC0C81A515E5
:103F40002E8E00FA2CCAC0FF80072C0581A56A2C92
:103F50000C04290C2C058DA58F2B0803100473BEAF
:103F6000FB48AC0BB02A56FE152EB0BDF53FA4079A
:103F7000100CE0A5E72839FD9F2E32BCE1902FFE02
:103F8000272003100477BBD4A82F11273C04292431
:103F9000ADC807100CBBA62C2501FBAF2F56B99C52
:103FA000F02F352454042930BC0C57A73B23E5F9E6
:103FB0003430F8B76BEC072C0512A83D216C0429AE
:103FC0003C2C057BA83A205003AC1100B60F3FEB08
:103FD000A8341FAEF739315EB5EB3E140A140CE37A
:103FE000A9201D93F6B93122B49DB02F121C68038D
:103FF000140488B372C82F021B9C042954AD3408E2
:10400000180C2BACDB185FF4B232CDB1E3102FC427
:1040100017B4042960AC0D7BADAB1645F32C33B55A
:10402000B0783D58082C05E8AE7314CC04296C2CEC
:1040300005A9AF54139803180428AFC588AC0B34F6
:104040001213F11934A9AE853C7C08180C15B2EE98
:104050000FFBEF8D34B6ADFDD02FCA0EB0031804A0
:1040600041ADB6E82FA40DFC042984ADA0081C0CBA
:10407000AFB5540BCCED6E35F6ABD330032F2B0A16
:1040800014052990AC0DA2B70109B6ECDC3529ABBB
:10409000303AC4082C05AFB9AA062C05299C2C057A
:1040A000BFBA7E05E003AC110FAA2B39D4BB510473
:1040B0008CEAB136B7A9CF38E8082C1111BEF70148
:1040C00078E9183712A9123838BFC900F8032C094B
:1040D000C5A8B03765C09BFF5C0529B4AD0C093C91
:1040E00011CFC240FD53E7E137F1A77D360CC41371
:1040F000FC740519C0AC0D4EC5E6FA42E6423874B0
:10410000A7A53530092C05E1C78EF88C0529CC2CE4
:104110000532C963F72804AC11D3A6533488CA39D1
:10412000F623E4FD38A4A6DF3354092C1141CDE673
:10413000F315E3583950A6EF32A5CEBFF240042C58
:10414000092CA674320CD098F1BC0529E4AD78098D
:104150002C11E8D24FEFFCE0063AD3A5F9305CD43D
:104160002DEED40529F0AC0DD3D50CEDF2DF593A84
:10417000A9A5F22F9C092C05CDD8CFEAEC0529FC86
:104180002C054FDAB4E97004AC1185A55A2ED5DBA5
:104190009AE8E1DDFA3A7FA5CF2DC0092C11E9DEBE
:1041A0006DE6DADC473B7FA5B22C77E059E5880461
:1041B0002C0985A5212C08E248E41C062D1403AD2A
:1041C000E4092C1132E52DE2D1DADA3BA9A5652A02
:1041D000CBE624E134062DC40AAC0D65E81DE0CE23
:1041E000D9203CD3A53529080A2C05A1EB18DE4CB3
:1041F000062D2C032C0541ED19DDB804AC112CA6BD
:104200006027E3EE1EDCCDD7A53C50A6C1262C0AC4
:104210002C112CF231DACFD6E43CA4A67E25D2F3C1
:104220003FD9D0042C09D3A6DA2479F551D87C06DD
:104230002D4403AD500A2C11CAF87FD6D8D45B3D6B
:1042400074A7E72273FA9BD5E8042D5003AC0D1D2B
:10425000FCBBD4DFD3933DF1A79321740A2C0572E4
:10426000FF06D3AC062D5C032C051C0131D20005E2
:10427000AC11C5A88C1FC70261D1F2D1FC3D12A9B7
:10428000DC1E980A2C111B06CCCFFED02D3EB7A900
:10429000791DC40707CF18052C090FAAC61C6D0984
:1042A00047CEDC062D7403ADBC0A2C11BB0CD4CC5C
:1042B0001CCF883E29ABA71A610E21CCF4062D80B5
:1042C00003AC0D051073CB2ECEB13EF6AB3719986B
:1042D0000D2C054A1324CA0C072D8C032C05EA1457
:1042E00083C94805AC1141AD09178816E8C857CCF9
:1042F000FD3EB6AD4C16040B2C11BE19BEC76ECBDD
:10430000203FA9AED214561B31C760052C0928AF37
:104310001314EB1CA8C63C072DA403AD280B2C11CD
:104320000E20A7C5A3C95D3FB5B0D3119C212DC5F3
:1043300054072DB003AC0D2623B9C4C1C8783FCDB6
:10434000B150104C0B2C053226E0C36C072DBC037A
:104350002C05B3277BC39005AC1188B3060E312919
:104360001CC303C7A73F22B4410D700B2C11212C95
:104370006DC227C6BB3F5EB5B70B932D1DC2A80506
:104380002C0900B6F10A022FD3C19C072DD403AD2E
:10439000940B2C11D2314FC176C4DB3FF8B79D0886
:1043A000343315C1C0052DA40CAC0D9234E0C0A16E
:1043B000C3E73F56B90E07B80B2C053F3788C0CC72
:1043C000072DEC032C058E3864C0D805AC1177BBE3
:1043D000B504D93945C0FEC1F83F32BCED03DC0B52
:1043E0002C115F3C19C030C1FD3FB0BD5B029A3D4E
:1043F0000BC0F0052C0973BE9201D03E03C0FC0730
:104400002D0404000700000401070104000000005F
:04000005080000ED02
:00000001FF
